:100000000C9487000C94A6000C94A6000C94A600F7
:100010000C94A6000C94A6000C94A6000C94A600C8
:100020000C94A6000C94A6000C94A6000C94A600B8
:100030000C94A6000C94A6000C94A6000C94A600A8
:100040000C94A6000C94A6000C94A6000C94A60098
:100050000C94A6000C94A6000C94A6000C94A60088
:100060000C94A6000C94A6000C94A6000C94A60078
:100070000C94A6000C94A6000C94A6000C94A60068
:100080000C94A6000C94A6000C94A60007634236BC
:10009000B79BD8A71A39685618AEBAAB558C1D3C19
:1000A000B7CC5763BD6DEDFD753EF6177231BF00DD
:1000B0000000803F08000000BE922449123EABAA17
:1000C000AA2ABECDCCCC4C3E00000080BEABAAAA72
:1000D000AA3E00000000BF000000803F00000000BA
:1000E00000084178D3BB4387D1133D190E3CC3BDF3
:1000F0004282AD2B3E68EC8276BED98FE1A93E4CA0
:1001000080EFFFBE01C4FF7F3F000000000011240C
:100110001FBECFEFD0E1DEBFCDBF11E0A0E0B1E068
:10012000ECE4F0E100E00BBF02C007900D92A830B4
:10013000B107D9F711E0A8E0B1E001C01D92AC31E0
:10014000B107E1F70E940A010C9424080C94000006
:1001500020E030E040E050E066E67EE0B09902C08A
:100160002F5F3F4FCB010197F1F74F5F5F4F83E068
:10017000493D580799F7C901C2978634910548F05F
:100180002D5830402336310518F421E030E003C00B
:10019000089520E030E0C90108950F931F93CF9395
:1001A000DF93C0E0D0E020E030E006E61EE007C0CC
:1001B000B09B2196C8010197F1F72F5F3F4F83E075
:1001C000293D3807ACF3CE01C2978634910518F467
:1001D00080E30E94F601CE018D5890408336910550
:1001E00018F481E30E94F60184E70E94F601E39788
:1001F0002CF0C0E0D0E020E030E0E1CF83E50E94C9
:10020000F601DF91CF911F910F91089517BA0E94C7
:10021000C60108952F923F924F925F926F927F9204
:100220008F929F92AF92BF92CF92DF92EF92FF9206
:100230000F931F93DF93CF93CDB7DEB7C857D0404E
:100240000FB6F894DEBF0FBECDBF0E94060100E0DE
:1002500010E050E8E52EF12C86B39701002E02C085
:10026000359527950A94E2F790E028233923232B2C
:1002700011F480E301C081E30E94F6010F5F1F4F7C
:100280000830110549F70E94CD0088249924CE0139
:1002900087589F4FE9969FAF8EAFE99749E3242E89
:1002A000312C2C0E3D1E30E0432E31E0532E26E63D
:1002B000622E2EE0722E8E010F5F1F4F0E94A8004B
:1002C000D8018D939D938D01E996EEADFFADE99731
:1002D000AE17BF0799F79BE2C92ED12CCC0EDD1EBD
:1002E00081E0A82EB12CD6018D919C91892B59F4D7
:1002F0000F2EF0E0EF2EF0E0FF2EF0E00F2FF0E0F9
:100300001F2FF02D14C0B501882777FD8095982FF9
:100310000E94B0029B01AC0160E070E080E090E4DC
:100320000E943C03AC01CB01DA017C018D01B401D8
:10033000882777FD8095982F0E94B002A801970129
:100340000E9419020E947D024B01E2E0F0E0CE0E15
:10035000DF1E0894A11CB11CC214D30421F600D0E6
:1003600000D0EDB7FEB73196ADB7BEB712965C922E
:100370004E921197628393820E946C05C30101978C
:10038000F1F70F900F900F900F9095CF88E1809329
:100390009A0086E080939D008FE5809399001092EB
:1003A000980085E092E090931101809310018DE018
:1003B00092E0909313018093120183E080930B01EC
:1003C000109215011092140188E091E090931701AA
:1003D000809316019093190180931801089520913C
:1003E0009B0030E020783070C9010895982F8091EB
:1003F0009B0085FFFCCF90939C00089580919B000B
:1004000087FFFCCF80919C000895982F80919B00DE
:1004100085FFFCCF90939C00089580919B0087FFFF
:10042000FCCF80919B0087FFFCCF80919C000895BA
:100430005058BB27AA270ED0E5C0D6D030F0DBD06D
:1004400020F031F49F3F11F41EF4CBC00EF4E09580
:10045000E7FBC1C0E92FE7D080F3BA176207730743
:100460008407950718F071F49EF5FFC00EF4E0952F
:100470000B2EBA2FA02D0B01B90190010C01CA015E
:10048000A0011124FF27591B99F0593F50F4503E09
:1004900068F11A16F040A22F232F342F4427585FFB
:1004A000F3CF469537952795A795F0405395C9F713
:1004B0007EF41F16BA0B620B730B840BBAF09150CB
:1004C000A1F0FF0FBB1F661F771F881FC2F70EC06A
:1004D000BA0F621F731F841F48F48795779567953D
:1004E000B795F7959E3F08F0B3CF9395880F08F026
:1004F0009927EE0F97958795089504D06894B111C8
:10050000B5C0089598D088F09F5790F0B92F9927DB
:10051000B751A0F0D1F0660F771F881F991F1AF00E
:10052000BA95C9F712C0B13081F09FD0B1E00895FB
:100530009CC0672F782F8827B85F39F0B93FCCF37C
:10054000869577956795B395D9F73EF49095809504
:10055000709561957F4F8F4F9F4F0895E89409C024
:1005600097FB3EF490958095709561957F4F8F4FE6
:100570009F4F9923A9F0F92F96E9BB279395F695FC
:10058000879577956795B795F111F8CFFAF4BB0F7A
:1005900011F460FF1BC06F5F7F4F8F4F9F4F16C0DE
:1005A000882311F096E911C0772321F09EE8872F68
:1005B000762F05C0662371F096E8862F70E060E024
:1005C0002AF09A95660F771F881FDAF7880F96959D
:1005D000879597F9089597F99F6780E870E060E044
:1005E00008959FEF80EC089500240A9416161706CC
:1005F00018060906089500240A9412161306140614
:1006000005060895092E0394000C11F4882352F076
:10061000BB0F40F4BF2B11F460FF04C06F5F7F4F2E
:100620008F4F9F4F089557FD9058440F551F59F015
:100630005F3F71F04795880F97FB991F61F09F3FCF
:1006400079F087950895121613061406551FF2CFF8
:100650004695F1DF08C0161617061806991FF1CF48
:1006600086957105610508940895E894BB2766276F
:100670007727CB0197F90895FA01EE0FFF1F309607
:100680002105310599F16115710561F48038BFE3E9
:100690009B0749F168949038810561F08038BFEF7D
:1006A0009B0741F0992342F5FF3FE1053105210504
:1006B00011F1E8940894E795D901AA2329F4AB2F06
:1006C000BE2FF85FD0F310C0FF5F70F4A695E0F77F
:1006D000F73950F019F0FF3A38F49F779F930CD018
:1006E0000F9007FC905808953EF07BCF60E070E0DB
:1006F00080E89FE308954FE79F775F934F933F9381
:100700002F939ED02F913F914F915F910CD105C0B7
:1007100019F40EF060CFA9CF64CF8DDFC8F39638FF
:10072000C0F707F80F92E8942BE33AEA48EB5FE74B
:1007300008D10F920F920F924DB75EB70F92C0D0B3
:10074000ECE8F0E016D04F915F91EF91FF91E595C5
:10075000EE1FFF1F49F0FE57E0684427EE0F441FCD
:10076000FA95E1F74195550B32D00F9007FE26C060
:100770000895DF93CF931F930F93FF92EF92DF9231
:100780007B018C01689405C0DA2EEF01D8D0FE0100
:10079000E894A5912591359145915591AEF3EF01DE
:1007A00059DEFE019701A801DA9479F7DF90EF9006
:1007B000FF900F911F91CF91DF9108959B01AC01A4
:1007C00060E070E080E89FE311C105CF77C133DFBF
:1007D000E8F39923D9F3940F511DBBF39150504086
:1007E00094F059F0882332F0660F771F881F9150DC
:1007F0005040C1F79E3F510544F7880F911D9695D3
:10080000879597F908955F3FACF0983E9CF0BB2721
:10081000869577956795B79508F4B1609395C1F77C
:10082000BB0F58F711F460FFE8CF6F5F7F4F8F4F1A
:100830009F4FE3CF1BCF0EF041C1D3CE6894CBCEF8
:10084000FADEC8F39923D1F3C6F3DF93CF931F9356
:100850000F93FF92C92FDD2788232AF02197660F77
:10086000771F881FDAF720E030E040E85FEB9FE376
:10087000883920F0803E30F021968F77DADDE4EB86
:10088000F0E003C0D6DDE1EEF0E073DF8B01BE01E6
:10089000EC01FB2E6F5771097595771F880B990B2B
:1008A0005FDE28E132E741E35FE349D0AF2D9801F5
:1008B000AE01FF900F911F91CF91DF91CBDDA2CEC2
:1008C000FA01DC01AA0FBB1F9B01AC01BF5728F442
:1008D00022273327442750781FC0B75188F4AB2F05
:1008E0000024469537952795011CA395D2F3002047
:1008F00069F0220F331F441FB395DAF30DD098CD62
:1009000061307105A0E88A07B94630F49B01AC015B
:100910006627772788279078309621F020833183C7
:100920004283538308950BD06DCE5EDE28F063DEE4
:1009300018F0952309F04FCE54CE112497CE73DED4
:10094000A0F3959FD1F3950F50E0551F629FF001E2
:10095000729FBB27F00DB11D639FAA27F00DB11D3B
:10096000AA1F649F6627B00DA11D661F829F2227C4
:10097000B00DA11D621F739FB00DA11D621F839F4B
:10098000A00D611D221F749F3327A00D611D231F21
:10099000849F600D211D822F762F6A2F11249F576F
:1009A00050408AF0E1F088234AF0EE0FFF1FBB1F92
:1009B000661F771F881F91505040A9F79E3F510531
:1009C00070F009CE53CE5F3FECF3983EDCF3869592
:1009D00077956795B795F795E7959F5FC1F7FE2BDC
:1009E000880F911D9695879597F908950CD00ACE9A
:1009F00002DE40F0F9DD30F021F45F3F19F0EBCD7D
:100A0000511134CEEECD0FDE98F39923C9F355235F
:100A1000B1F3951B550BBB27AA27621773078407F1
:100A200038F09F5F5F4F220F331F441FAA1FA9F3A7
:100A300033D00E2E3AF0E0E830D091505040E69599
:100A4000001CCAF729D0FE2F27D0660F771F881FFA
:100A5000BB1F261737074807AB07B0E809F0BB0BE9
:100A6000802DBF01FF2793585F4F2AF09E3F51050D
:100A700068F0B1CDFBCD5F3FECF3983EDCF386959B
:100A800077956795B795F7959F5FC9F7880F911D83
:100A90009695879597F90895E1E0660F771F881F6F
:100AA000BB1F621773078407BA0720F0621B730B22
:100AB000840BBA0BEE1F88F7E09508959F3F31F045
:100AC000915020F4879577956795B795880F911D7C
:100AD0009695879597F90895DF93CF93CDB7DEB7B5
:100AE000FE013596619171918091180190911901E3
:100AF000AF010E947E05CF91DF9108952F923F9222
:100B00004F925F926F927F928F929F92AF92BF921D
:100B1000CF92DF92EF92FF920F931F93DF93CF93C9
:100B2000CDB7DEB72B970FB6F894DEBF0FBECDBFA3
:100B30003C012B015A01FC0117821682838181FD41
:100B400003C06FEF7FEFC6C19AE0892E1E010894A3
:100B5000211C311CF3012381F20123FD859123FF28
:100B600081912F01882309F4B2C1853239F423FD24
:100B7000859123FF81912F01853229F490E0B30103
:100B80000E949A07E7CF982FFF24EE249924FFE1D3
:100B9000FF15D0F09B3269F09C3228F4903259F066
:100BA000933291F40EC09D3249F0903369F441E0E4
:100BB00024C052E0F52A84E0F82A28C098E0F92AF7
:100BC00025C0E0E1FE2A22C0F7FC29C0892F80530E
:100BD0008A3070F4F6FE05C0989C902C1124980E73
:100BE00015C0E89CE02C1124E80EF0E2FF2A0EC0AC
:100BF0009E3229F4F6FC6BC140E4F42A07C09C360F
:100C000019F450E8F52A02C0983649F4F20123FDA0
:100C1000959123FF91912F01992309F0B8CF892F46
:100C20008554833018F08052833038F444E050E02B
:100C3000A40EB51E5FE359830FC0933631F093378E
:100C400079F0933509F056C020C0F5018081898381
:100C500042E050E0A40EB51E610101E010E012C0B8
:100C6000F501C080D180F6FC03C06FEF7FEF02C0BA
:100C7000692D70E042E050E0A40EB51EC6010E944E
:100C80008F078C015FE7F52214C0F501C080D18089
:100C9000F6FC03C06FEF7FEF02C0692D70E042E009
:100CA00050E0A40EB51EC6010E9484078C0150E8D6
:100CB000F52AF3FE07C01AC080E290E0B3010E945B
:100CC0009A07EA948E2D90E008171907A8F30EC032
:100CD000F601F7FC8591F7FE81916F0190E0B30179
:100CE0000E949A07E110EA94015010400115110585
:100CF00079F7EAC0943611F0993669F5F7FE08C025
:100D0000F501208131814281538184E090E00AC065
:100D1000F501808191819C01442737FD4095542F36
:100D200082E090E0A80EB91E9FE6F92257FF09C0A5
:100D300050954095309521953F4F4F4F5F4FE0E8DC
:100D4000FE2ACA01B901A1012AE030E00E94C607CB
:100D5000D82ED21840C0953729F41F2D1F7E2AE0C7
:100D600030E01DC01F2D197F9F3661F0903720F4B1
:100D7000983509F0ACC00FC0903739F0983709F0BA
:100D8000A6C004C028E030E00AC0106114FD146061
:100D900020E130E004C014FD166020E132E017FFCE
:100DA00008C0F501608171818281938144E050E047
:100DB00008C0F50180819181BC0180E090E042E0B3
:100DC00050E0A40EB51EA1010E94C607D82ED2186D
:100DD0008FE7F82EF122F6FE0BC05EEFF522D91454
:100DE00038F4F4FE07C0F2FC05C08FEEF82202C012
:100DF0001D2D01C0192DF4FE0DC0FE01ED0DF11DDC
:100E00008081803319F499EEF92208C01F5FF2FE49
:100E100005C003C08F2D867809F01F5F0F2DF3FCEE
:100E200014C0F0FE0FC01E1510F09D2C0BC09D2CA1
:100E30009E0C911A1E2D06C080E290E0B3010E9424
:100E40009A071F5F1E15C0F304C01E1510F4E11AA7
:100E500001C0EE2404FF0FC080E390E0B3010E94C4
:100E60009A0702FF1DC001FD03C088E790E00EC095
:100E700088E590E00BC0802F867891F001FF02C0DA
:100E80008BE201C080E2F7FC8DE290E0B3010E94AA
:100E90009A0706C080E390E0B3010E949A079A94F3
:100EA000D914C0F3DA94F101ED0DF11D808190E0C9
:100EB000B3010E949A07DD20A9F706C080E290E006
:100EC000B3010E949A07EA94EE20C1F743CEF301E2
:100ED00066817781CB012B960FB6F894DEBF0FBEEB
:100EE000CDBFCF91DF911F910F91FF90EF90DF90D9
:100EF000CF90BF90AF909F908F907F906F905F90BA
:100F00004F903F902F900895FC01059061507040E4
:100F10000110D8F7809590958E0F9F1F0895FC01C2
:100F20006150704001900110D8F7809590958E0F18
:100F30009F1F08950F931F93CF93DF938C01EB01B5
:100F40008B8181FF1BC082FF0DC02E813F818C8170
:100F50009D812817390764F4E881F9810193F983A9
:100F6000E88306C0E885F985802F0995892B31F43F
:100F70008E819F8101969F838E8302C00FEF1FEFAA
:100F8000C801DF91CF911F910F910895FA01AA270F
:100F9000283051F1203181F1E8946F936E7F6E5FBC
:100FA0007F4F8F4F9F4FAF4FB1E03ED0B4E03CD06A
:100FB000670F781F891F9A1FA11D680F791F8A1F4D
:100FC000911DA11D6A0F711D811D911DA11D20D0B4
:100FD00009F468943F912AE0269F11243019305D6E
:100FE0003193DEF6CF010895462F4770405D41935F
:100FF000B3E00FD0C9F7F6CF462F4F70405D4A33AC
:1010000018F0495D31FD4052419302D0A9F7EACF73
:10101000B4E0A6959795879577956795BA95C9F7A2
:1010200000976105710508959B01AC010A2E069495
:101030005795479537952795BA95C9F7620F731F4E
:0C104000841F951FA01D0895F894FFCF99
:08104C00256D696E0A0D00001C
:00000001FF
